:020000040800F2
:10000000E833002031020008871900081F18000893
:1000100085190008F5060008191D000800000000F9
:10002000000000000000000000000000990100082E
:10003000F706000800000000DD010008891900082B
:100040004B0200084B0200084B0200084B0200085C
:100050004B0200084B020008F90600084B0200089A
:100060004B0200084B0200084B0200084B0200083C
:100070004B0200084B0200084B0200084B0200082C
:100080004B0200084B0200084B0200084B0200081C
:100090004B0200084B0200084B0200084B0200080C
:1000A0004B0200084B0200084B0200084B020008FC
:1000B000011A00080D1A00084B0200084B02000844
:1000C0004B0200084B0200084B0200084B020008DC
:1000D0004B020008D51C00084B0200084B02000828
:1000E0004B0200084B0200084B02000800F002F827
:1000F00000F042F80AA090E8000C82448344AAF180
:100100000107DA4501D100F037F8AFF2090EBAE87D
:100110000F0013F0010F18BFFB1A43F0010318473B
:10012000403A0000603A0000103A24BF78C878C115
:10013000FAD8520724BF30C830C144BF04680C60ED
:10014000704700000023002400250026103A28BF35
:1001500078C1FBD8520728BF30C148BF0B60704739
:10016000642900F0F180732900F026820020704796
:100170001FB51FBD10B510BD00F08CFA1146FFF77A
:10018000F7FF01F075FE00F0AAFA03B4FFF7F2FFE3
:1001900003BC01F0D2FD0000224B19680868B0E8EA
:1001A000F00F80F30988BFF36F8F4FF0000080F3EA
:1001B00011884EF00D0E70470000000006480068E0
:1001C000006880F3088862B661B6BFF34F8FBFF353
:1001D0006F8F00DF00BF00BF08ED00E0EFF3098084
:1001E000BFF36F8F0F4B1A6820E9F00F106008B54E
:1001F0004FF0100080F31188BFF34F8FBFF36F8F64
:1002000002F0C2FE4FF0000080F31188BDE8084004
:1002100019680868B0E8F00F80F30988BFF36F8FA2
:10022000704700BF1C000020EFF3058070470000FE
:100230000948804709480047FEE7FEE7FEE7FEE77A
:10024000FEE7FEE7FEE7FEE7FEE7FEE704480549B6
:10025000054A064B70470000FD190008ED00000834
:10026000E82D0020E8330020E82F0020E82F0020B0
:10027000704700000FB4044910B503AA029800F0BB
:100280009FF910BC5DF814FB9C0000202DE9F041A3
:100290000E460446002020622046E168884730B3BD
:1002A000252805D0D4E901219047206A401CF2E7B7
:1002B000E168204600278847050018D0A5F14100D5
:1002C000192802D820354FF40067324629462046C7
:1002D0002760FFF745FF40B1012804D0F61D26F046
:1002E00007060836D8E7361DD6E72846DAE7206A3B
:1002F000BDE8F08170B50C460546012A05D0287886
:10030000800600D5EA69002302E0012305E05B1CBA
:10031000934202D2E05C0028F9D1A869E618C01A1D
:10032000A861286A184428622846AFF3008004E0D8
:10033000D5E9012114F8010B9047B442F8D32846BF
:10034000AFF3008070BD00002DE9F04106460024A7
:1003500010687529314616A510D0AFF3008000282B
:1003600002DA404213A507E031688A0701D512A5D9
:1003700002E0490704D511A5012401E0AFF3008094
:1003800000210A2206F1240709E0B0FBF2FCB0FBD1
:10039000F2F302FB1C00303078541846491C002848
:1003A000F3D123462A463046BDE8F04100F080B83C
:1003B000000000002D0000002B00000020000000C5
:1003C000032A40F2308010F0030C00F0158011F881
:1003D000013BBCF1020F624498BF11F801CB00F859
:1003E000013B38BF11F8013BA2F1040298BF00F8AD
:1003F00001CB38BF00F8013B11F0030300F0F2809D
:10040000083AC0F0088051F8043B083A51F804CB90
:10041000A0E80810F5E7121D5CBF51F8043B40F856
:10042000043BAFF30080D20724BF11F8013B11F861
:1004300001CB48BF11F8012B24BF00F8013B00F8A5
:1004400001CB48BF00F8012B704702F0FF0343EADD
:10045000032242EA024200F0F9B84FF0000200B570
:10046000134694469646203922BFA0E80C50A0E8D7
:100470000C50B1F12001BFF4F7AF090728BFA0E885
:100480000C5048BF0CC05DF804EB890028BF40F851
:10049000042B08BF704748BF20F8022B11F0804F93
:1004A00018BF00F8012B70477047704770477047BE
:1004B0002DE9F0470D4699469246044600F124087E
:1004C0000168880604D5E06921F01001216000E090
:1004D0000120A84201DD471B00E00027A1697A192D
:1004E00002EB0900081AA0612078C00602D4204659
:1004F000AFF30080002608E0D4E901211AF80600D5
:100500009047206A401C761C20624E45F4DB207820
:10051000C0060AD52046AFF3008006E0D4E90121E9
:1005200030209047206A401C2062381EA7F1010746
:10053000F4DC07E0D4E9012118F805009047206AAF
:10054000401C2062281EA5F10105F3DC2046AFF314
:1005500000802078000602D50220BDE8F087012047
:10056000FBE7000001694A1C02610878704700B58A
:100570008FB0CDE901310021059105497944CDE9DC
:10058000031011466846FFF781FE0FB000BD000062
:10059000E5FFFFFF10B5436913B1AFF3008001E041
:1005A000FFF7A8FE012010BD127800F124010A70A7
:1005B00000224A700122EDE711684FF0FF32E9E7AF
:1005C000074B70B50D467B44FFF7D1FF0446284624
:1005D00000F05CF810B14FF0FF3070BD204670BDE8
:1005E000F717000010B5203AC0F00B80B1E81850A2
:1005F000203AA0E81850B1E81850A0E81850BFF40D
:10060000F5AF5FEA027C24BFB1E81850A0E81850AB
:1006100044BF18C918C0BDE810405FEA827C24BFFF
:1006200051F8043B40F8043B08BF7047D20728BF8D
:1006300031F8023B48BF11F8012B28BF20F8023BDC
:1006400048BF00F8012B70474FF000020429C0F0AA
:10065000128010F0030C3FF402AFCCF1040CBCF19B
:10066000020F18BF00F8012BA8BF20F8022BA1EB46
:100670000C01FFF7F4BE5FEAC17C24BF00F8012B38
:1006800000F8012B48BF00F8012B7047007B00F0F9
:1006900080007047754600F029F8AE4605006946AF
:1006A000534620F00700854618B020B5FFF7CEFD71
:1006B000BDE820404FF000064FF000074FF0000863
:1006C0004FF0000B21F00701AC46ACE8C009ACE8E4
:1006D000C009ACE8C009ACE8C0098D4670470446C3
:1006E000AFF300802046FFF750FD00000048704740
:1006F000882D0020FEE77047012000F073B872B625
:10070000FEE710B590F821100022022905D004213F
:10071000816380F82020012010BD01680B6823F060
:100720000E030B6001680B6823F001030B6090F867
:100730004030C46B012101FA03F3636080F821109B
:1007400080F82020104610BD10B590F8211000242C
:10075000022903D00421816301243DE001680A6875
:1007600022F00E020A6001680A6822F001020A60A3
:100770001A4A0168914201D1012121E0174A14323D
:10078000914201D110211BE0144A2832914201D13B
:10079000891515E0114A3C32914201D189140FE0CC
:1007A0000E4A5032914202D14FF4803108E00B4A98
:1007B0006432914202D14FF4801101E04FF0807118
:1007C000064A083A5160012180F82110002180F882
:1007D0002010416B01B18847204610BD080002403F
:1007E00070470000044910B50A68024202D0086050
:1007F000FFF7F6FF10BD0000140401402DE9F84F8B
:10080000DFF8B891002409F1040A0AF1040B234629
:100810000F270BF1040EC9E00125A5402A40AA428A
:100820007DD1674ED1F804C0ACEB0608B44532D098
:1008300014DCBCF1030F3AD009DCBCF1000F2AD064
:10084000BCF1010F1CD0BCF1020F31D11DE0BCF195
:10085000110F17D0BCF1120F2AD119E0B8F5881F7B
:1008600019D006DCB8F5803F15D0B8F5801F1FD130
:1008700011E0B8F5001F0ED0B8F5041F18D10AE03A
:10088000CB6815E0CB681B1D12E0CB6808330FE086
:10089000CB680C330CE08B682BB1012B4FF00803B5
:1008A00003D0456104E0042302E0056100E0002379
:1008B000FF2A01D8064601E000F104064FEA84054C
:1008C00001D9A5F12005D6F8008007FA05FC28EA31
:1008D0000C0803FA05F548EA0508C6F800804D68DB
:1008E000ED0062D5374DAE6946F00106AE61AD69E7
:1008F00024F0030605F001050095334D06EB050CC9
:10090000DCF80850A607360F07FA06F825EA0805AE
:10091000DFF8B880404503D14FF0000817E044E00D
:10092000DFF8AC80404502D14FF001080FE0DFF85E
:10093000A480404502D14FF0020808E0DFF898801B
:10094000404502D14FF0030801E04FF0040808FAD7
:1009500006F848EA0508CCF808804D68D9F8006028
:10096000ED034D4601D5164300E096432E604D68D9
:10097000DAF80060AD03554601D5164300E0964312
:100980002E604D68DBF80060ED025D4601D5164330
:1009900000E096432E604D68DEF80060AD027546BB
:1009A00001D5164300E096432E60641C0D682A466C
:1009B000E5407FF431AFBDE8F88F0000000401404E
:1009C000000011100010024000000140000801402A
:1009D000000C01400010014000140140C26821EAEF
:1009E00002030A4043EA0241016170470AB1016112
:1009F00070470904FBE70000014880687047000069
:100A00000C00002002488168027811448160704720
:100A10000C000020074810B5016841F0100101608A
:100A2000032000F075F80F2000F006F800F024F81D
:100A3000002010BD0020024070B50D4D04464FF45B
:100A40007A712878B1FBF0F00A490968B1FBF0F03F
:100A500000F0F8FA48B9102C07D200222146501EA7
:100A600000F036F800206C6070BD012070BD000001
:100A70000C000020180000200C4808B5816941F0E6
:100A800001018161816901F001010091C16941F0B9
:100A90008051C161C06900F08050009004484168F5
:100AA00021F0E06141F00071416008BD001002409A
:100AB00000000140002809DB00F01F0201219140E5
:100AC0004009800000F1E020C0F8001170470000EC
:100AD000F0B40E4B1B680C46C3F30223C3F10705A9
:100AE000042D00D90425191D072901D2002300E097
:100AF000DB1E012606FA05F1491E214099409E4061
:100B0000761E16403143F0BC01F007B90CED00E051
:100B1000064900F0070208684FF6FF03184040EA54
:100B20000220034A10430860704700000CED00E00B
:100B30000000FA052DE9F0470F46050061D0434E4D
:100B4000306800F00700B84209D2306820F0070092
:100B500038433060306800F00700B84251D128684F
:100B60003B4C810712D5400703D5606840F4E06034
:100B700060602878000703D5606840F460506060CA
:100B80006068A96820F0F000084360602878C0071A
:100B900028D06868012810D02168022810D0890761
:100BA00000292EDA616821F0030101436160FFF73B
:100BB00023FF804641F288390DE021688903EFE781
:100BC0008901EDE7FFF718FFA0EB0801494502D9BD
:100BD0000320BDE8F0876068696800F00C00B0EBA6
:100BE000810FEFD1306800F00700B8420BD93068B0
:100BF00020F0070038433060306800F00700B8424A
:100C000001D00120E5E72878400705D56068E9684C
:100C100020F4E060084360602878000706D560682B
:100C2000296920F4605040EAC100606000F038F8A3
:100C30006168084AC1F30311515CC8400649086065
:100C400006480068FFF7F8FE0020C2E700200240D7
:100C500000100240483B000818000020100000204F
:100C60000448054900684968044AC1F30221515CFF
:100C7000C84070471800002000100240583B000890
:100C80000448054900684968044AC1F3C221515C1F
:100C9000C84070471800002000100240583B000870
:100CA00012A185B00FC98DE80F0014A0144A006886
:100CB00004905168134801F00C03042B10D0082B4A
:100CC0000ED1C1F38343C9031DF803000AD551684F
:100CD00004AAC1F34041515C0A4A5043B0FBF1F011
:100CE00005B0704708494843FAE7000002030405CD
:100CF000060708090A0B0C0D0E0F10100102000068
:100D00000010024000127A0000093D002DE9F84F62
:100D1000040070D02078C04DC00749D06868C0F387
:100D20008100012807D06868C0F38100022809D13A
:100D30006868C00306D52868800339D56068002834
:100D4000E7D035E06068B0F5803F0BD010B1B0F56A
:100D5000A02F11D0286820F480302860286820F463
:100D6000802002E0286840F480302860606890B1FC
:100D7000FFF742FE06460AE0286840F4802028601B
:100D8000F0E700BFFFF738FE801B642873D828689F
:100D90008003F7D50CE0FFF72FFE064605E000BF05
:100DA000FFF72AFE801B6428F0D828688003F7D458
:100DB00020789A4E80074FF001094FF0000839D58E
:100DC000686810F00C0F07D06868C0F38100022833
:100DD00009D16868C00306D42868800714D5206943
:100DE000012808D110E02069B0B1C6F80090FFF7E3
:100DF00003FE074605E00AE1FFF7FEFDC01B0228DF
:100E0000C4D828688007F7D52868616920F0F80001
:100E100040EAC10028600DE0C6F80080FFF7ECFD55
:100E2000074604E0FFF7E8FDC01B022823D8286826
:100E30008007F7D4207800072CD57948A169D9B16B
:100E4000C0F80090FFF7D8FD074604E0FFF7D4FD97
:100E5000C01B02280FD8686A8007F7D571484FF485
:100E6000FA510068B0FBF1F0009000BF0098411EFD
:100E70000091FAD20EE080E0C0F80080FFF7BCFDE0
:100E8000074604E0FFF7B8FDC01B022875D8686A62
:100E90008007F7D42078400760D5E8690027C000B4
:100EA00008D4E86940F08050E861E869012700F063
:100EB000805000905C480168C90513D401688346DE
:100EC00041F480710160FFF797FD824606E000BFA4
:100ED000FFF792FDA0EB0A0064284ED8DBF8000073
:100EE000C005F5D5E06801280AD008B1052813D05F
:100EF000286A20F001002862286A20F0040002E03D
:100F0000286A40F001002862E06841F2883B98B10D
:100F1000FFF772FD82460BE0286A40F00400286269
:100F2000EEE700BFFFF768FDA0EB0A0159455AD86C
:100F3000286A8007F6D50CE0FFF75EFD824605E0E3
:100F4000FFF75AFDA0EB0A0159454CD8286A8007E3
:100F5000F6D41FB1E86920F08050E861E06988B3F9
:100F60006968C1F38101022944D00228C6F8608073
:100F700004D0FFF741FD044638E034E0FFF73CFDC4
:100F8000074604E0FFF738FDC01B02282BD828686D
:100F90008001F7D4206AB0F5803F05D16868A16868
:100FA00020F4003008436860D4E908010843696808
:100FB00021F4741108436860C6F86090FFF71CFDC7
:100FC000044606E025E000BFFFF716FD001B0228DF
:100FD00009D828688001F7D51BE000BFFFF70CFD9A
:100FE000001B022802D90320BDE8F88F2868800181
:100FF000F4D40EE00128F7D06868226A00F480314A
:10100000914204D1616A00F47010884201D001203D
:10101000EAE70020E8E7000000100240000042423A
:101020008004424218000020007000404FF0E02190
:101030000428086903D020F004000861704740F0DC
:101040000400FAE710B5401EB0F1807F01D3012003
:1010500010BD4FF0E02460610F21601700F05DFECD
:101060000020A06107202061002010BD704770475C
:1010700070B590F83C20012A26D0012480F83C402D
:10108000022280F83D2003685A689D6822F07006AD
:101090000A6832435A600D4B02689A4208D0B2F196
:1010A000804F05D00A4B9A4202D00A4B9A4204D193
:1010B000496825F080031943916080F83D40002184
:1010C00080F83C10084670BD022070BD002C014025
:1010D000000400400008004010B5040003D094F85C
:1010E0003D0010B107E0012010BD002084F83C0055
:1010F000204600F01FF8022084F83D00211D2068E2
:1011000000F08AFC012084F8460084F83E0084F850
:101110003F0084F8400084F8410084F8420084F8DD
:10112000430084F8440084F8450084F83D00002022
:1011300010BD000008B501681448B1F1804F14D00B
:10114000134A914220D1C16941F00201C161C069D5
:10115000002200F0020000900F211D20FFF7B8FCD4
:101160001D20BDE80840FFF7A5BCC16941F00101A1
:10117000C161C069002200F00100009002211C2022
:10118000FFF7A6FC1C20ECE708BD000000100240A1
:101190000004004090F83D10012901D00120704763
:1011A000022180F83D100168CA6842F00102CA605D
:1011B00000680B49884208D0B0F1804F05D009493A
:1011C000884202D00849884204D1816801F00701B1
:1011D000062903D0016841F0010101600020704739
:1011E000002C0140000400400008004070B5044697
:1011F00090F83C00012817D0012584F83C500220CB
:1012000084F83D002068826822F0770222F47F4251
:1012100082600868502830D00DDC20284DD005DCD5
:1012200098B310283BD148E0022070BD302844D04C
:10123000402834D139E0602828D0702806D0B0F595
:10124000805F2CD0B0F5005F29D10AE0CB68D1E9EE
:101250000121206800F016FC2068816841F07701C8
:1012600009E0CB68D1E90121206800F00BFC20687F
:10127000816841F48041816011E0CA684968206852
:1012800000F012FC5021206807E016E0CA684968A7
:10129000206800F01AFC6021206800F0FDFB84F853
:1012A0003D50002084F83C0070BDCA684968206841
:1012B00000F0FAFB40212068EFE722680146104663
:1012C000EBE7704770B50446006801694FF0000510
:1012D000C943890715D4C168C943890711D4E91ED8
:1012E000016101202077206880698007204602D0B4
:1012F000FFF7E7FF04E000F098F8204600F096F8CA
:10130000257720680169C943490717D4C168C943D3
:10131000490713D46FF0040101610220207720688F
:10132000806910F4407F204602D0FFF7CAFF04E036
:1013300000F07BF8204600F079F8257720680169F5
:10134000C943090716D4C168C943090712D46FF00D
:1013500008010161042020772068C06980072046C9
:1013600002D0FFF7AEFF04E000F05FF8204600F087
:101370005DF8257720680169C943C90617D4C1689B
:10138000C943C90613D46FF010010161082020770A
:101390002068C06910F4407F204602D0FFF791FF1B
:1013A00004E000F042F8204600F040F8257720687D
:1013B0000169C943C90708D1C168C943C90704D134
:1013C000891E0161204600F033F820680169C94395
:1013D000090609D4C168C943090605D46FF0800124
:1013E00001612046FFF742FE20680169C9434906B2
:1013F00009D4C168C943490605D46FF040010161B1
:10140000204600F039F820680169C94389060BD4E9
:10141000C168C943890607D46FF0200101612046E5
:10142000BDE87040FFF723BE70BD704770470000F5
:101430000649884201D106A004E0044948318842A7
:1014400002D108A0FEF716BF70470000A0000020E0
:1014500054494D32CAE4B3F62E2E2E2E2E2E2E0DCA
:101460000A00000054494D33CAE4B3F62E2E2E2E46
:101470002E2E2E0D0A00000070477047704710F89E
:101480003D1F407808437047F8B50268044610686D
:10149000D168536910F00F0F4FF0000554D003F0DE
:1014A000010601F4907737435FD0C20705D0CA0523
:1014B00003D5226C42F001022264420705D5DA0707
:1014C00003D0226C42F002022264820705D5DA07BB
:1014D00003D0226C42F004022264020707D501F017
:1014E0002002324303D0226C42F008022264226CB4
:1014F000002A35D0800604D5880602D5204600F0A3
:1015000016FB20684069216CC0F3801001F00801CF
:101510000143204625D000F0F2FA206841694906CF
:101520001BD5416921F040014161A06BA8B1584928
:101530004163A06BFFF708F9002811D0A06B416B45
:1015400001B0BDE8F040084783060ED58B060CD5E8
:101550002046BDE8F84000F0EABA2046FFF78EFFCB
:10156000F8BDFFF78BFF2564F8BD266B2023012E05
:1015700052D1C60650D5CE064ED5106850680090A0
:10158000506940062AD5A16B086840680004000C29
:10159000EAD0A68D8642E7D9E0858869202818D050
:1015A000D06820F48070D0602068416921F001018A
:1015B00041612068416921F04001416184F83E3079
:1015C00025632068C16821F01001C160A06BFFF79E
:1015D00098F8A08DE18D401A81B219E0A08DE18DBF
:1015E000401A81B2E08D0028BED00029BCD0D0685E
:1015F00020F49070D0602068426922F001024261BC
:1016000084F83E3025632068C26822F01002C26070
:101610002046FFF732FFF8BD05062BD50D0629D56C
:1016200094F83D002128F6D1A068B0F5805F01D183
:101630002069B0B1206A411C2162216800784860AD
:10164000E08C401E0004000CE084E4D12068C168F6
:1016500021F08001C1602068C16841F04001C16093
:10166000F8BD206A0088C0F308005060206A801C22
:101670002062E5E74006F3D54806F1D5D16820465B
:1016800021F04001D16084F83D3000F0C7F8F8BD8A
:10169000EF1A000870B5040004D094F83D0000254E
:1016A00010B106E0012070BD84F83C50204600F0E7
:1016B00023F8242084F83D002068C16821F40051FB
:1016C000C160204600F08EFA2068016921F4904143
:1016D00001612068416921F02A0141612068C168E7
:1016E00041F40051C1602564202084F83D0084F855
:1016F0003E00002070BD000010B500681A4986B099
:1017000088422ED11948816941F0040181618169C3
:1017100001F004010491816941F480418161806993
:10172000134C00F4804004904FF4007000900220AD
:1017300001900320039069462046FFF75FF82015CB
:101740000090002001900120029069462046FFF79A
:1017500055F8002211462520FFF7BAF92520FFF79A
:10176000A9F906B010BD0000003801400010024089
:101770000008014090F83E30202B0ED159B152B1F3
:1017800090F83C30012B08D0012380F83C30002336
:10179000036300F083BA0120704702207047000005
:1017A00030B40068194988420DD1194841880A04AB
:1017B00009D40246174B12784D044FF0000415D59A
:1017C0000A2A02D0448030BC704741F40041418075
:1017D000C1F30D0101E05C54491CC829FBDB4480C6
:1017E00030BC4FF400510C48FFF7F8B80D2A08D070
:1017F000C1F30D05491C89B25A554180C729E1D86A
:10180000E1E741F480414180DDE70000003801401C
:10181000980000207C2C0020001001407047FEE75B
:1018200070B586B00024204800940194029403947B
:10183000816941F010018161816901F01001049119
:10184000816941F020018161816901F020010491E9
:10185000816941F0040181618069144E00F0040047
:101860004FF400550490002229463046FFF7BEF899
:101870000320CDE9024000950125694601953046D7
:10188000FEF7BCFFCDE90054694609480295FEF712
:10189000B5FF002205210620FFF71AF90620FFF701
:1018A00009F906B070BD00000010024000100140B0
:1018B0000008014010B586B0002417480094019438
:1018C0000294039404944FF080410594016041F622
:1018D0001F41C0E9011442F20F71C0E90314846191
:1018E000FFF7FAFB08B1FEF70AFF4FF480500090B3
:1018F00069460948FFF77AFC08B1FEF700FF049437
:1019000004A905480594FFF7B3FB002801D0FEF7B2
:10191000F6FE06B010BD0000A000002010B586B095
:1019200000241748009401940294039404941349EA
:101930000594016041F61F41C0E9011442F20F71A4
:10194000C0E903148461FFF7C7FB08B1FEF7D7FEB7
:101950004FF48050009069460948FFF747FC08B1F2
:10196000FEF7CDFE049404A905480594FFF780FB1B
:10197000002801D0FEF7C3FE06B010BD00040040F1
:10198000E8000020FEE7FEE710B501F07FFE012829
:1019900001D001F071FBBDE81040FFF733B830B55E
:1019A0008FB028216846FEF758FD14210AA8FEF7DB
:1019B00054FD01210804CDE9001000240294022501
:1019C0000491CDE907504FF4E01009906846FFF705
:1019D0009DF908B172B6FEE70F20CDE90A054FF474
:1019E0008060CDE90C4002210AA80E94FFF7A2F80E
:1019F000002801D072B6FEE70FB030BD704700007E
:101A00000148FFF75FBC0000A00000200148FFF77D
:101A100059BC0000E8000020F0B50268164B174CD6
:101A2000174D4FF08047984205D0B84203D0A042EE
:101A300001D0A84203D122F070064A68324398428E
:101A400005D0B84203D0A04201D0A84203D122F46D
:101A50004074CA6822434C6922F08002224302602B
:101A60008A68C2620A688262984201D10969016388
:101A700001214161F0BD0000002C01400004004044
:101A80000008004010B5846842EA032224F47F4431
:101A90000A432243826010BD826822F070020A432A
:101AA00042F007018160704710B5036A046A24F0B0
:101AB00001040462846924F0F00444EA021423F06F
:101AC0000A020A438461026210BD10B5036A23F062
:101AD000100303628369046A23F4704343EA023209
:101AE00024F0A00343EA01118261016210BD10B528
:101AF000406A0021C185C184FFF7C0FC10BD0168A8
:101B0000CA6822F49072CA6001684A6922F0010230
:101B10004A61016B012904D10168CA6822F01002F0
:101B2000CA60202180F83E1000210163704708B58B
:101B300090F83E10222901D0022008BD82684FF49F
:101B400080539A4201D1016921B1816A9A421BD026
:101B50004AB10AE00268816A5268C2F308020A8048
:101B6000816A891C08E0026972B10268526802F059
:101B70007F020A70816A491C8162C18D491E090475
:101B8000090CC18503D019E002685268F1E70168C9
:101B9000CA6822F02002CA600168CA6822F4807212
:101BA000CA6001684A6922F001024A61202180F876
:101BB0003E10016B012903D0FFF7F2FD002008BDA4
:101BC000002101630168CA6822F01002CA6001683E
:101BD0000A68D20602D50A6849680091818DFFF72C
:101BE0004CFCEBE770B5044600680169E26821F43B
:101BF0004051114301612169A068084361690843AC
:101C00002168CA6841F20C639A430243CA602068A3
:101C10004169A26921F44071114341611E49206864
:101C2000884202D1FFF72CF801E0FFF719F800EB2A
:101C3000C00101EB0012606864218000B2FBF0F388
:101C4000B3FBF1F36FF018067343B2FBF0F5B2FB90
:101C5000F0F605EB8305322303EB0515B5FBF1F533
:101C6000B6FBF1F605F0F00505EB0615B2FBF0F654
:101C7000B2FBF0F0B0FBF1F06FF01802504306EB4E
:101C8000800003EB0010B0FBF1F0216800F00F00C2
:101C90002844886070BD0000003801408162828560
:101CA000C28500210164222280F83E2080F83C1089
:101CB0000168CA6842F48072CA6001684A6942F0E9
:101CC00001024A610068C16841F02001C160002042
:101CD0007047000070B500240C4D0D48FFF7D4FB91
:101CE00002E0641CAC4204D80948FFF7C8FB202876
:101CF000F7D1002402E0641CAC4206D80122054959
:101D00000348FFF737FD0028F5D170BDFFFF010044
:101D1000442D002098000020FEE70907090E002846
:101D200004DB00F1E02080F80014704700F00F00A1
:101D300000F1E02080F8141D7047704710B504468C
:101D40000420FFF773F909484FF47A7144604C435B
:101D5000012101804FF0E020016941F002010161A1
:101D60004461016941F00101016110BD9000002052
:101D700070B54FF0E024002265690949A3694968FC
:101D80004843A1699942FCD002D2A3EB010302E0CF
:101D9000A5EB010633441A440B468242F1D370BDD1
:101DA0009000002070B5054600244FF47A7603E0D9
:101DB0003046FFF7DDFF641CAC42F9D370BD000074
:101DC00004490A685206FCD5024AC1B2121D1160CC
:101DD0007047000000380140164C174E4FF47A75DA
:101DE0002068401C2060D6F8B401C043C6F8B40196
:101DF000284600F017FF114911A0FEF73BFA2068B2
:101E00000528EDD314A0FEF735FA102080F31188D1
:101E1000BFF34F8FBFF36F8F2846FFF7C3FF2846EE
:101E2000FFF7C0FF0FA0FEF725FA002080F311880E
:101E3000D6E7000000000020000022427C2C002099
:101E4000757361727420726563656976653A2025E1
:101E50007320200D0A000000D6D0B6CFB9D8B1D576
:101E60000D0A0000B4F2BFAAD6D0B6CF0D0A00000A
:101E70001CB50320FEF74CFEFEF7CCFDFFF78FFDEF
:101E8000B420FFF75BFF4FF4E13000F021FDFFF7D6
:101E9000C7FCFFF70FFDFFF741FD0A48FFF77AF98E
:101EA0000948FFF777F909490120CDE9000102024D
:101EB000002307A1094801F0BDFB01F013F8002041
:101EC0001CBD0000A0000020E8000020040000204D
:101ED00073746172745F7461736B00008D28000805
:101EE0002DE9F041184C0F460546E6682068001DB4
:101EF00000F00CFD38B9206890F82C1001208840C3
:101F0000216981432161681C07D137B12168BDE88F
:101F1000F0410E48091D00F031BD20683544B5423E
:101F20004560216805D2A06BBDE8F041091D00F0B5
:101F30000DBD606B091D00F009FDA06A854200D24D
:101F4000A562BDE8F08100001C00002040040020D4
:101F50002DE9F041054600F01DFD2D4CA068401C08
:101F6000A06020682B4F10B1606930B32BE0256072
:101F7000A068012827D1002606EB860007EB800029
:101F800000F0D6FC761C202EF6D3234800F0D0FCBF
:101F90002148143000F0CCFC1F48283000F0C8FC69
:101FA0001D483C3000F0C4FC1B48503000F0C0FC21
:101FB000194860631430A06305E02068E96AC06ACC
:101FC000884200D82560606A401C60626864E96AE3
:101FD0000120226988401043206101EB810007EB5A
:101FE0008000291D00F0CAFC00F010FD6069002887
:101FF0000CD02068E96AC06A884207D207494FF0CE
:1020000080500860BFF34F8FBFF36F8FBDE8F08142
:102010001C00002070010020F003002004ED00E00F
:1020200010B500F0B7FC0E4C2068A0B90D4800F0C8
:102030007FFC0C48143000F07BFC0A48E060143050
:10204000206100221021052001F02CF8206010B141
:1020500005A100F0B1FDBDE8104000F0D7BC0000C4
:102060005800002054040020546D725100000000FC
:1020700070B5114E114C17E000F07EFF3068B8B11A
:1020800001F032FC00F086FCF068C568281D00F005
:102090003DFCA068401EA0606068401E606000F0CB
:1020A000B5FC284600F055F860680028E4D170BD02
:1020B00001F01AFCF8E700002C0400201C000020AE
:1020C00030B4026C0B46002A0BD0C1681144C160C9
:1020D0004468A14201D30168C16030BC1846FEF7D4
:1020E0006FB930BC70472DE9F041856B1746044647
:1020F0000026026C82B1C7B1E068FEF761F9E168C1
:10210000206C091AE1602268914202D26168081AC3
:10211000E060022F16D017E02068A8B9606801F0CF
:102120003DFB0646002060600EE0A068FEF748F91F
:10213000216CA0680844A0606168884204D32068CC
:10214000A06001E005B16D1E6D1CA5633046BDE8C1
:10215000F08110B50446006B00F08AFC2046BDE813
:10216000104000F085BC000010484FF42051420799
:1021700006D0C01D0D4920F00700411AC1F52051BD
:102180000B4A00230144C2E900030839103A21F048
:10219000070111604B600B600B1AC0E900139360DC
:1021A0004FF000405360D060704700007C04002076
:1021B0007C000020074C4FF08056074DFFF758FF7A
:1021C00020680128FAD92E60BFF34F8FBFF36F8FBD
:1021D000F4E700007001002004ED00E02DE9F04775
:1021E000DDE909840E461746824691009946089D0E
:1021F000A522206BFEF729F96FF00301206B01EB9C
:102200008701084420F00707780705D040F22B32F9
:1022100019A11EA0FEF72EF800202218315C82F8CA
:102220003410315C11B1401C1028F6D3002684F81C
:102230004360202D00D31F25E562C4E91356201DFD
:1022400000F081FB04F1180000F07DFB2461C5F172
:1022500020006462A061666584F858604A46514671
:10226000384600F001FB2060B8F1000F01D0C8F83B
:102270000040BDE8F08700002E2E5C467265655276
:10228000544F535C7461736B732E63004572726FAD
:10229000723A25732C25640D0A00000030B51149EF
:1022A00000E011460A688242FBD34B685C18844206
:1022B00003D1406818444860084643681C1894429B
:1022C00009D1084C103C2468A24209D052681A4433
:1022D00042600A6812680260814200D0086030BD26
:1022E0000460F9E77C00002070B5002441600B4DCC
:1022F0000061914206D8D11A8269914206D2011D2D
:10230000286907E09A4203D2994201D3012403E0ED
:10231000011DE86800F01AFB204670BD580000203F
:1023200010B5044600F036FBA06B28B15FF0000446
:1023300000F06CFB204610BD0124F9E72DE9F341C4
:1023400000980F460026846C2CB940F6CE1216A1D8
:102350001AA0FDF78FFFA06BE16B884205D340F612
:10236000CF1211A115A0FDF785FFA06BE16B88428C
:102370000CD294F945503A4669462046FFF7B3FE21
:102380000646681C05D06D1C84F845503046BDE8F3
:10239000FC81606A0028F9D004F1240001F058FAA9
:1023A0000028F3D00126F1E72E2E5C4672656552B7
:1023B000544F535C71756575652E63004572726F7D
:1023C000723A25732C25640D0A000000F8B5054605
:1023D00014480E46C068C068C468201D00F096FA14
:1023E000E069012817D1A0692B46411932462046E1
:1023F000FFF77AFF78B100200346014600902A4695
:10240000204601F059FB30B907494FF4027201F13F
:102410001800FDF72FFF616A01B02046BDE8F040CB
:1024200008470000580000201C3A000870B588B02A
:102430002F4E53E00498002806DADDE90601059ADC
:1024400090470498002849DB069C606910B1201D64
:1024500000F05CFA02A800F0A7F8054604980A28E4
:102460003CD2DFE800F00505053B273805053B2792
:102470000598A169034601442A462046FFF734FF28
:1024800000282BD0616A20468847E069012825D1C1
:10249000002000900598A1690023421819462046A3
:1024A00001F00AFBD0B940F2213212A117A0FDF7CA
:1024B000E1FE13E00598A06128B94FF44E720DA11A
:1024C00012A0FDF7D7FEA0692B4641191A462046F7
:1024D000FFF70AFF02E0204600F0CAFA00231A467E
:1024E00004A9306800F01AFE0028A3D108B070BD1E
:1024F000580000202E2E5C4672656552544F535C86
:1025000074696D6572732E63000000004572726F0E
:10251000723A25732C25640D0A000000F8B50D46AB
:10252000064600F029FD684600F03EF80446009893
:1025300010B101F0D9F9F8BD1148ADB101690968D0
:10254000D9B10025311B2A46006800F049FB01F093
:10255000CBF90028EFD10B494FF080500860BFF352
:102560004F8FBFF36F8FF8BDA642EBD801F0BCF9D7
:1025700021463046FFF72AFFF8BD0125E2E70000BB
:102580005800002004ED00E00648416B096829B1BD
:10259000416BC968C9684968816270474FF0FF3173
:1025A000FAE700001C00002070B5054601F07CF839
:1025B000064E0446B068844203D200F009F80120B8
:1025C00000E0002028602046B46070BD5800002064
:1025D000F8B5184D26E0C068C4680668201D00F0F4
:1025E00095F9616A20468847E06901281AD1A069F7
:1025F0003044B04206D924616060211DE86800F0D3
:10260000A5F90FE00020034601460090324620461F
:1026100001F052FA30B9084940F2923201F1180043
:10262000FDF728FEE86801680029D4D12969C5E9C9
:102630000310F8BD580000201C3A00080848406804
:10264000401C04D0F42207A111A0FDF713FE1020B6
:1026500080F31188BFF34F8FBFF36F8FFEE7000049
:10266000840000202E2E5C4672656552544F535CE8
:10267000706F727461626C655C525644535C415277
:102680004D5F434D335C706F72742E630000000029
:102690004572726F723A25732C25640D0A00000092
:1026A000074CE068016841B1C0680021D0F8000023
:1026B000FFF734FFFFF7BAFEF3E701210020F7E749
:1026C000580000202DE9F041044600F063F994F928
:1026D000455004F1240610E0A06C20B100212046F2
:1026E000FFF72CFE04E0606A48B1304601F0B0F814
:1026F00008B100F033FB6D1E6DB2002DECDC4FF025
:10270000FF3684F8456000F081F900F043F994F950
:10271000445004F1100709E0206948B1384601F03F
:1027200097F808B100F01AFB6D1E6DB2002DF3DCB6
:1027300084F84460BDE8F04100F068B92DE9F0414B
:102740000546002700F018FC324E306808B9FFF744
:102750000BFDF06805424FD1002D4DD008356807BC
:102760000BD005F00700C0F108000544680704D04D
:10277000BF2229A132A0FDF77DFD002D3CD070685D
:10278000854239D82348103001460C6801E02046C4
:102790000C466168A94202D221680029F7D131684C
:1027A000B0468C4228D0076821680160606808370D
:1027B000401B10280ED96619700704D0EC2216A110
:1027C0001FA0FDF757FD6068401B706030466560D4
:1027D000FFF764FD6268D8F804104046891AC8F80B
:1027E0000410D8F80830994200D28160D8F80C0063
:1027F00002430020C4E9000201F076F8780705D012
:102800004FF4967204A10EA0FDF734FD3846BDE8E2
:10281000F08100006C0000202E2E5C46726565522F
:10282000544F535C706F727461626C655C4D656D82
:102830004D616E675C686561705F342E63000000F7
:102840004572726F723A25732C25640D0A000000E0
:102850000449086818B10868026D521C02650868CE
:10286000704700001C00002010B5031F4FF080745B
:102870001C601B1F21F001011960191F024B0B6026
:10288000143940380A6010BD3D2600081CB500F020
:1028900081F809490220CDE90001C201002307A106
:1028A0000A4800F0C7FE04480838406800F0F0F914
:1028B000BDE81C4000F0AAB808000020696E7465ED
:1028C00072727570745F7461736B0000D91D0008BB
:1028D0000C4910B50A4AC1E9002000208860C86090
:1028E0000C220861C1E90520C8610846FEF7D2FE46
:1028F000BDE81040012204490248FEF73BBF00003A
:1029000000380140442D002098000020D0E9013219
:1029100001699A60D0E901235A604A68824201D174
:1029200082684A60002202610868401E08607047A1
:1029300000F108014FF0FF32C0E90112C1600161EE
:1029400000210160704700210161704730B50B68BC
:102950005A1C02D000F1080202E0026904E022469B
:10296000546825689D42FAD953684B6099608A6023
:10297000516008610168491C016030BD42684A60CD
:1029800093688B6093685960916008610168491C85
:1029900001607047102080F31188BFF34F8FBFF3A1
:1029A0006F8F09494868401C486001280AD10748D0
:1029B000006810F0FF0F05D04FF4BD7204A10FA006
:1029C000FDF758BC704700008400002004ED00E0D3
:1029D0002E2E5C4672656552544F535C706F727454
:1029E00061626C655C525644535C41524D5F434D8D
:1029F000335C706F72742E63000000004572726F5A
:102A0000723A25732C25640D0A00000010B5084C9D
:102A1000606828B940F2811206A111A0FDF72AFCD6
:102A20006068401E606001D180F3118810BD000015
:102A3000840000202E2E5C4672656552544F535C14
:102A4000706F727461626C655C525644535C4152A3
:102A50004D5F434D335C706F72742E630000000055
:102A60004572726F723A25732C25640D0A000000BE
:102A700070B500282AD0164DA0F108046068E968F6
:102A8000084205D14FF4A07212A11CA0FDF7F2FB81
:102A9000206828B140F241120EA118A0FDF7EAFB10
:102AA0006168E868014211D02268002A0ED1814392
:102AB000616000F061FA60686968084468602046F7
:102AC000FFF7ECFBBDE8704000F00EBF70BD0000EA
:102AD0006C0000202E2E5C4672656552544F535C8C
:102AE000706F727461626C655C4D656D4D616E678F
:102AF0005C686561705F342E630000004572726F20
:102B0000723A25732C25640D0A00000006484FF424
:102B10007A710068B0FBF1F14FF0E020491E41618D
:102B200007210161704700001800002010B5FDF773
:102B30007BFB104C10280CD300F1E02090F8F00340
:102B40002178884205D24FF42A720BA115A0FDF717
:102B500091FB18480068A16800F4E060884207D93A
:102B6000BDE810404FF42E7203A10EA0FDF782BB0A
:102B700010BD0000840000202E2E5C467265655258
:102B8000544F535C706F727461626C655C52564452
:102B9000535C41524D5F434D335C706F72742E63D2
:102BA000000000004572726F723A25732C25640D87
:102BB0000A0000000CED00E010B5084B002200BF39
:102BC00053F832401CB1521C082AF9D310BD43F807
:102BD000321003EBC201486010BD0000300100203C
:102BE00070B515460E460446FFF7D4FE94F944101E
:102BF0000020491C01D184F8440094F94510491C77
:102C000001D184F84500FFF701FFA06B28B92A46DF
:102C1000314604F1240000F0D1F82046BDE87040B0
:102C2000FFF750BD10B5040012D00E48006B28B15C
:102C300040F2CF420CA111A0FDF71CFB00F09CF963
:102C400000212046FFF74CF900F04EFE002807D186
:102C50000E494FF080500860BFF34F8FBFF36F8F66
:102C600010BD00001C0000202E2E5C4672656552CF
:102C7000544F535C7461736B732E63004572726FB3
:102C8000723A25732C25640D0A00000004ED00E063
:102C900070B50546FFF77EFE234C05B92568281D53
:102CA000FFF734FE58B9E86A204A00EB800152F879
:102CB000211021B901218140206988432061A86A3F
:102CC00018B105F11800FFF721FE606A401C606230
:102CD0002068854207D1291D1548FFF74FFE60681F
:102CE000401C606007E0A068401EA0602846FFF717
:102CF00030FAFFF749FCFFF789FE6069002812D01F
:102D0000206885420FD1206B28B140F2654209A1AD
:102D10000DA0FDF7AFFA10494FF080500860BFF3E7
:102D20004F8FBFF36F8F70BD1C000020700100201B
:102D30002C0400202E2E5C4672656552544F535C65
:102D40007461736B732E63004572726F723A2573F0
:102D50002C25640D0A00000004ED00E0014901206B
:102D6000C86170471C00002070B50D46040005D1F5
:102D700040F6063207A10CA0FDF77CFA0E48016868
:102D800020461831FFF7E2FD2846BDE870400121DA
:102D9000FFF7A6B82E2E5C4672656552544F535C01
:102DA0007461736B732E63004572726F723A257390
:102DB0002C25640D0A0000001C00002070B514468C
:102DC0000D46060005D140F6313209A10DA0FDF7F0
:102DD00051FA1048016830461831FFF7CFFD0CB1A9
:102DE0004FF0FF3521462846BDE87040FFF778B820
:102DF0002E2E5C4672656552544F535C7461736B42
:102E0000732E63004572726F723A25732C25640D20
:102E10000A0000001C00002070B5040039D01D4DD0
:102E2000E06A2968C96A884233D2A069002804DBB5
:102E30002868C06AC0F12000A061E16A164E01EB6B
:102E40008101606906EB810188421FD1201DFFF7D7
:102E50005DFD012150B9E06A00EB800256F82220A6
:102E600022B92A6901FA00F082432A612868C06AFF
:102E7000E0622A6981401143296100EB800006EB82
:102E80008000211DBDE87040FFF778BD2868C06A4A
:102E9000E06270BD1C0000207001002010B504002D
:102EA00005D140F6C13205A109A0FDF7E3F90C48B0
:102EB000016A2160C068606010BD00002E2E5C4673
:102EC00072656552544F535C7461736B732E63006B
:102ED0004572726F723A25732C25640D0A0000004A
:102EE0001C0000201CB517480024CDE900402346F3
:102EF000822215A1164800F09DFB012803D100F0A5
:102F0000A1FD01280AD0401C1BD102B040F28472FE
:102F1000BDE810400FA114A0FDF7ACB9102080F35C
:102F20001188BFF34F8FBFF36F8F06484FF0FF310B
:102F30002C38816201214161C460BDE81C4000F071
:102F400061B81CBD4800002049444C450000000009
:102F5000B52100082E2E5C4672656552544F535CB5
:102F60007461736B732E63004572726F723A2573CE
:102F70002C25640D0A0000000248016B491C016306
:102F8000704700001C00002070B5134C206B10B17E
:102F90000120E06170BD0020E06120690F4EB0FAB1
:102FA00080F0C0F11F0000EB800556F8250028B91D
:102FB00040F6F6220AA10FA0FDF75CF906EB8500AA
:102FC00000F10802416849684160914201D14968B5
:102FD0004160C868206070BD1C00002070010020A6
:102FE0002E2E5C4672656552544F535C7461736B50
:102FF000732E63004572726F723A25732C25640D2F
:103000000A0000001CB5194908780190FF200870DB
:1030100008788DF800009DF80000154A00F01000B7
:1030200010700720906005E09DF800305B008DF87F
:103030000030401E9DF800301B06F5D4000200F45D
:10304000E0609060019808700A48016841F47001DE
:103050000160016841F070410160FFF757FD0020F9
:103060005060FDF7ABF800201CBD000000E400E05C
:103070008400002020ED00E010B5102080F31188BE
:10308000BFF34F8FBFF36F8F00F014FB18B10449EB
:103090004FF080500860002080F3118810BD0000C0
:1030A00004ED00E02DE9F04117460E46050005D17C
:1030B0004FF4C47210A115A0FDF7DCF8BEB105FBFA
:1030C00006F05430FFF73AFB04000ED004F1540030
:1030D0007EB12060C4E90F562046012100F0E0F8DF
:1030E00084F8507000212046A164BDE8F0810020E2
:1030F000E7E72460EEE700002E2E5C46726565521D
:10310000544F535C71756575652E63004572726F1F
:10311000723A25732C25640D0A0000002DE9FF4F3B
:10312000002683B09B468A46040005D140F2DC426B
:1031300051A156A0FDF79EF8BAF1000F07D1206CFF
:1031400028B140F2DD424CA150A0FDF793F800F009
:103150009DFA38B9059828B14FF49C6246A14BA05E
:10316000FDF788F84FF000094FF08057DFF82C8109
:10317000FFF710FCA56B4DB351462046E668FEF7FD
:103180009FFFBBF1000F14D0E660606A58B104F1F4
:10319000240000BF00F05CFB28B1C8F80070BFF34A
:1031A0004F8FBFF36F8FFFF731FC012007B0BDE8F1
:1031B000F08F6D1EA563206810B9FFF749FB6060B2
:1031C00020690028EFD004F11000E3E7059808B16A
:1031D0001EB106E0FFF71AFC27E06846FFF75EFE27
:1031E0000126FFF713FCFFF7C7FEFFF7D3FB94F9A7
:1031F0004400401C01D184F8449094F94500401CDF
:1032000001D184F84590FFF701FC05A9684600F05C
:10321000CDF9002820460AD0FFF754FA00F064FBED
:103220002046FFF77DF80028A2D00020BEE7FFF778
:1032300077F8D8B1206830B9FFF7ACFB6068FFF7CA
:10324000EBFDFFF7E3FB04F124000599FFF78CFD8C
:103250002046FFF737FA00F047FB002888D1C8F86E
:103260000070BFF34F8FBFF36F8F81E72046FFF7EA
:1032700029FA00F039FB7BE72E2E5C467265655219
:10328000544F535C71756575652E63004572726F9E
:10329000723A25732C25640D0A00000004ED00E04D
:1032A00070B50D46040005D140F21B121CA121A0EF
:1032B000FCF7E0FFFFF76EFBD4E90F20216802FB6B
:1032C000001161600021A1632168A1600A46D4E970
:1032D0000F01401E00FB0121E16021464FF0FF304D
:1032E00001F8440F487004F110004DB1FFF720FBC6
:1032F00004F12400FFF71CFBFFF788FB012070BDE1
:1033000021690029F8D000F0A3FA0028F4D00D4973
:103310004FF080500860BFF34F8FBFF36F8FEBE724
:103320002E2E5C4672656552544F535C71756575FF
:10333000652E63004572726F723A25732C25640DF9
:103340000A00000004ED00E02DE9FF4782B01D46B1
:103350008A464FF00008040005D140F2D92250A15E
:1033600054A0FCF787FFBAF1000F07D1206C28B1F9
:1033700040F2DA224AA14FA0FCF77CFF022D08D1CF
:10338000E06B012805D040F2DB2245A149A0FCF703
:1033900071FF00F07BF938B9049828B140F2DE22C1
:1033A0003FA144A0FCF766FF464F4FF000094FF0E5
:1033B000805600BFFFF7EEFAA06BE16B884207D39F
:1033C000022D05D0049808B3B8F1000F21D025E0F4
:1033D0002A4651462046FEF786FEA16C21B12946B9
:1033E0002046FEF7ABFF05E0616A19B104F1240045
:1033F00000F02EFA20B13E60BFF34F8FBFF36F8F06
:10340000FFF704FB012006B0BDE8F087FFF7FEFAE6
:1034100022E06846FFF742FD4FF00108FFF7F6FA99
:10342000FFF7AAFDFFF7B6FA94F94400401C01D15A
:1034300084F8449094F94500401C01D184F84590EB
:10344000FFF7E4FA04A9684600F0B0F830B120466E
:10345000FFF738F900F048FA0020D4E7FFF79AFAAE
:10346000A06BE16B884213D1FFF7D0FA04F1100092
:103470000499FFF779FC2046FFF724F900F034FAAD
:10348000002897D13E60BFF34F8FBFF36F8F91E756
:10349000FFF7BCFA2046FFF715F900F025FA89E797
:1034A0002E2E5C4672656552544F535C717565757E
:1034B000652E63004572726F723A25732C25640D78
:1034C0000A00000004ED00E02DE9F0479846174699
:1034D0008946040005D140F29F322BA12FA0FCF7B2
:1034E000C9FEB9F1000F07D1206C28B14FF4687202
:1034F00025A12AA0FCF7BEFEB8F1020F08D1E06BAF
:10350000012805D040F2A1321FA124A0FCF7B2FE91
:10351000FFF70CFB1020EFF3118680F31188BFF347
:103520004F8FBFF36F8FA06BE16B884208D3B8F168
:10353000020F05D05FF0000086F31188BDE8F08728
:1035400094F94550424649462046FEF7CCFD681C9A
:1035500004D06D1C84F845500120EDE7A06C0125D6
:1035600020B141462046FEF7E9FE06E0606A0028E9
:10357000F2D004F1240000F06BF90028ECD0002F09
:10358000EAD03D60E8E700002E2E5C467265655289
:10359000544F535C71756575652E63004572726F8B
:1035A000723A25732C25640D0A00000070B50D4693
:1035B000040005D140F6CB3214A119A0FCF75AFE45
:1035C0002DB940F6CC3211A115A0FCF753FEFFF740
:1035D000E1F9174AD1682868431C0FD02368126AA2
:1035E000934202D062688A420AD96268891A81428B
:1035F00006D2401A28602046FFF750FC002400E065
:103600000124FFF703FA204670BD00002E2E5C4611
:1036100072656552544F535C7461736B732E630013
:103620004572726F723A25732C25640D0A000000F2
:103630001C0000202DE9FF5F8346DDE90E879946D7
:1036400016468A469000FFF779F805001AD05C20EC
:10365000FFF774F8040012D025630021CDE9024180
:10366000CDE900874B46324651465846FEF7B6FD37
:103670002046FEF76DFC012004B0BDE8F09F28460F
:10368000FFF7F6F94FF0FF30F6E700000548416913
:1036900019B1006B18B1002070470120704702205B
:1036A000704700001C0000200148C06870470000FF
:1036B0001C0000202DE9F0412D4C0027206B40B16B
:1036C000A069401CA061E06900B101273846BDE84F
:1036D000F081E668761CE66011D1606B006828B165
:1036E00040F6D91223A128A0FCF7C4FD606BA16BA2
:1036F0006163A063206A401C2062FEF745FFA06A58
:10370000DFF89480864209D3606B006880B1606BFB
:10371000C068C568686886420DD2A0622068C06A29
:1037200000EB800158F821000128CCD90127CAE715
:103730004FF0FF30F1E7281DFFF7E8F8A86A18B14D
:1037400005F11800FFF7E2F8E86A012122698140DB
:103750001143216100EB800108EB8100291DFFF777
:103760000DF9E86A2168C96A8842CDD30127CBE701
:103770001C0000202E2E5C4672656552544F535C2F
:103780007461736B732E63004572726F723A2573A6
:103790002C25640D0A0000007001002070B50400A3
:1037A0004FF000063CD01F4D2868844205D040F6FB
:1037B000C7621DA121A0FCF75DFD206D28B940F670
:1037C000C96219A11DA0FCF755FD206D401E2065A2
:1037D000E26CE16A914223D010BB201DFFF796F8FE
:1037E0001A4A012150B9E06A00EB800352F82330F5
:1037F00023B92B6901FA00F083432B61E06CE0628E
:10380000C0F12000A061E06A2B6981401943296161
:1038100000EB800002EB8000211DFFF7AFF80126CE
:10382000304670BD1C0000202E2E5C46726565522D
:10383000544F535C7461736B732E63004572726FE7
:10384000723A25732C25640D0A00000070010020D7
:103850002DE9F041C068C4682CB940F6613216A168
:103860001AA0FCF707FD04F118000746FFF74EF811
:103870001A4D286B012660B139461948FFF77EF8CA
:10388000E06A2968C96A884213D90120EE61BDE85F
:10389000F081201DFFF73AF8E16A2A6906FA01F083
:1038A0001043286101EB81000E4901EB8000211DCE
:1038B000E4E70020EBE700002E2E5C4672656552BF
:1038C000544F535C7461736B732E63004572726F57
:1038D000723A25732C25640D0A0000001C0000209C
:1038E00018040020700100202DE9F0472C4C002521
:1038F0002E46206B28B94FF4FD622AA12EA0FCF7BA
:10390000B9FCFFF747F8206B401E2063206BE0BB3B
:10391000A1682D4F0120C1B3A7F52A7980463868E8
:10392000E8B1F868C56805F11800FEF7EFFF281D3B
:10393000FEF7ECFFE86A226908FA00F11143216101
:1039400000EB800109EB8100291DFFF717F8E86AF9
:103950002168C96A8842E2D3C4F81C80DFE70DB150
:10396000FEF712FEA5694DB14FEA0807FFF7A2FE68
:1039700000B1E7616D1EF9D10020A061E06920B1BE
:10398000124901263007086000E003E0BFF34F8FC3
:10399000BFF36F8FFFF73AF83046BDE8F0870000BD
:1039A0001C0000202E2E5C4672656552544F535CFD
:1039B0007461736B732E63004572726F723A257374
:1039C0002C25640D0A0000001804002004ED00E01E
:1039D0002DE9F0470746994616460D462C20DDF89E
:1039E00020A0FEF7ABFE040014D0B8464F46D146E7
:1039F0002DB94FF4C67209A10EA0FCF73BFCFEF7EF
:103A00000FFB04F11801C4F8008081E8E002201DDA
:103A1000FEF799FF2046BDE8F08700002E2E5C4699
:103A200072656552544F535C74696D6572732E6391
:103A3000000000004572726F723A25732C25640DE8
:103A40000A0000001CB50024FEF7EAFA0C480068E2
:103A500068B10B491F20091DCDE9000100234FF477
:103A6000827208A10948FFF7E5FD040005D140F284
:103A7000331207A10CA0FCF7FDFB20461CBD000083
:103A800058000020546D722053766300A126000870
:103A90002E2E5C4672656552544F535C74696D6599
:103AA00072732E63000000004572726F723A2573C4
:103AB0002C25640D0A0000002DE9FF47DDF830A039
:103AC000994690460E4607004FF0000405D14FF48A
:103AD000D37212A117A0FCF7CDFB1A4D286880B154
:103AE000CDE900680297062E11DAFFF7CFFD022814
:103AF0004FF0000309D0002269462868FFF724FC34
:103B0000044604B02046BDE8F0875246F4E700239F
:103B10004A466946FFF7D8FCF2E700002E2E5C46C5
:103B200072656552544F535C74696D6572732E6390
:103B3000000000004572726F723A25732C25640DE7
:103B40000A000000580000200000000000000000F3
:103B50000102030406070809000000000102030433
:103B6000803B000800000020A000000028010008A1
:103B7000203C0008A0000020483300004401000859
:103B80000000000000000000000000000100000034
:103B900010000000000000000024F40000000000FD
:103BA0000000000000000000000000000000000015
:103BB0000000000000000000000000000000000005
:103BC00000000000000000000000000000000000F5
:103BD00000000000000000000000000000000000E5
:103BE00000000000000000000000000000000000D5
:103BF00000000000000000000000000000000000C5
:103C00000000000000000000AAAAAAAA000000000C
:103C100000000000000000000000000000000000A4
:04000005080000ED02
:00000001FF
